{
  "_format": "hh-sol-artifact-1",
  "contractName": "Trustified",
  "sourceName": "contracts/Trustified.sol",
  "abi": [
    {
      "inputs": [],
      "stateMutability": "nonpayable",
      "type": "constructor"
    },
    {
      "anonymous": false,
      "inputs": [
        {
          "indexed": true,
          "internalType": "address",
          "name": "owner",
          "type": "address"
        },
        {
          "indexed": true,
          "internalType": "address",
          "name": "approved",
          "type": "address"
        },
        {
          "indexed": true,
          "internalType": "uint256",
          "name": "tokenId",
          "type": "uint256"
        }
      ],
      "name": "Approval",
      "type": "event"
    },
    {
      "anonymous": false,
      "inputs": [
        {
          "indexed": true,
          "internalType": "address",
          "name": "owner",
          "type": "address"
        },
        {
          "indexed": true,
          "internalType": "address",
          "name": "operator",
          "type": "address"
        },
        {
          "indexed": false,
          "internalType": "bool",
          "name": "approved",
          "type": "bool"
        }
      ],
      "name": "ApprovalForAll",
      "type": "event"
    },
    {
      "anonymous": false,
      "inputs": [
        {
          "indexed": false,
          "internalType": "address",
          "name": "",
          "type": "address"
        },
        {
          "indexed": false,
          "internalType": "uint256",
          "name": "",
          "type": "uint256"
        }
      ],
      "name": "TokenMinted",
      "type": "event"
    },
    {
      "anonymous": false,
      "inputs": [
        {
          "indexed": false,
          "internalType": "address",
          "name": "",
          "type": "address"
        },
        {
          "indexed": false,
          "internalType": "address",
          "name": "",
          "type": "address"
        },
        {
          "indexed": false,
          "internalType": "uint256",
          "name": "",
          "type": "uint256"
        }
      ],
      "name": "TokenTransfered",
      "type": "event"
    },
    {
      "anonymous": false,
      "inputs": [
        {
          "indexed": true,
          "internalType": "address",
          "name": "from",
          "type": "address"
        },
        {
          "indexed": true,
          "internalType": "address",
          "name": "to",
          "type": "address"
        },
        {
          "indexed": true,
          "internalType": "uint256",
          "name": "tokenId",
          "type": "uint256"
        }
      ],
      "name": "Transfer",
      "type": "event"
    },
    {
      "inputs": [
        {
          "internalType": "address",
          "name": "to",
          "type": "address"
        },
        {
          "internalType": "uint256",
          "name": "tokenId",
          "type": "uint256"
        }
      ],
      "name": "approve",
      "outputs": [],
      "stateMutability": "nonpayable",
      "type": "function"
    },
    {
      "inputs": [
        {
          "internalType": "address",
          "name": "owner",
          "type": "address"
        }
      ],
      "name": "balanceOf",
      "outputs": [
        {
          "internalType": "uint256",
          "name": "",
          "type": "uint256"
        }
      ],
      "stateMutability": "view",
      "type": "function"
    },
    {
      "inputs": [
        {
          "internalType": "string[]",
          "name": "tokenUris",
          "type": "string[]"
        }
      ],
      "name": "bulkMintERC721",
      "outputs": [],
      "stateMutability": "nonpayable",
      "type": "function"
    },
    {
      "inputs": [
        {
          "internalType": "uint256",
          "name": "tokenId",
          "type": "uint256"
        }
      ],
      "name": "getApproved",
      "outputs": [
        {
          "internalType": "address",
          "name": "",
          "type": "address"
        }
      ],
      "stateMutability": "view",
      "type": "function"
    },
    {
      "inputs": [
        {
          "internalType": "uint256",
          "name": "eventId",
          "type": "uint256"
        }
      ],
      "name": "getTokenIds",
      "outputs": [
        {
          "internalType": "uint256[]",
          "name": "",
          "type": "uint256[]"
        }
      ],
      "stateMutability": "view",
      "type": "function"
    },
    {
      "inputs": [
        {
          "internalType": "address",
          "name": "owner",
          "type": "address"
        },
        {
          "internalType": "address",
          "name": "operator",
          "type": "address"
        }
      ],
      "name": "isApprovedForAll",
      "outputs": [
        {
          "internalType": "bool",
          "name": "",
          "type": "bool"
        }
      ],
      "stateMutability": "view",
      "type": "function"
    },
    {
      "inputs": [],
      "name": "name",
      "outputs": [
        {
          "internalType": "string",
          "name": "",
          "type": "string"
        }
      ],
      "stateMutability": "view",
      "type": "function"
    },
    {
      "inputs": [
        {
          "internalType": "uint256",
          "name": "tokenId",
          "type": "uint256"
        }
      ],
      "name": "ownerOf",
      "outputs": [
        {
          "internalType": "address",
          "name": "",
          "type": "address"
        }
      ],
      "stateMutability": "view",
      "type": "function"
    },
    {
      "inputs": [
        {
          "internalType": "string",
          "name": "tokenURI",
          "type": "string"
        }
      ],
      "name": "safeMint",
      "outputs": [
        {
          "internalType": "uint256",
          "name": "",
          "type": "uint256"
        }
      ],
      "stateMutability": "nonpayable",
      "type": "function"
    },
    {
      "inputs": [
        {
          "internalType": "address",
          "name": "from",
          "type": "address"
        },
        {
          "internalType": "address",
          "name": "to",
          "type": "address"
        },
        {
          "internalType": "uint256",
          "name": "tokenId",
          "type": "uint256"
        }
      ],
      "name": "safeTransferFrom",
      "outputs": [],
      "stateMutability": "nonpayable",
      "type": "function"
    },
    {
      "inputs": [
        {
          "internalType": "address",
          "name": "from",
          "type": "address"
        },
        {
          "internalType": "address",
          "name": "to",
          "type": "address"
        },
        {
          "internalType": "uint256",
          "name": "tokenId",
          "type": "uint256"
        },
        {
          "internalType": "bytes",
          "name": "data",
          "type": "bytes"
        }
      ],
      "name": "safeTransferFrom",
      "outputs": [],
      "stateMutability": "nonpayable",
      "type": "function"
    },
    {
      "inputs": [
        {
          "internalType": "address",
          "name": "operator",
          "type": "address"
        },
        {
          "internalType": "bool",
          "name": "approved",
          "type": "bool"
        }
      ],
      "name": "setApprovalForAll",
      "outputs": [],
      "stateMutability": "nonpayable",
      "type": "function"
    },
    {
      "inputs": [
        {
          "internalType": "bytes4",
          "name": "interfaceId",
          "type": "bytes4"
        }
      ],
      "name": "supportsInterface",
      "outputs": [
        {
          "internalType": "bool",
          "name": "",
          "type": "bool"
        }
      ],
      "stateMutability": "view",
      "type": "function"
    },
    {
      "inputs": [],
      "name": "symbol",
      "outputs": [
        {
          "internalType": "string",
          "name": "",
          "type": "string"
        }
      ],
      "stateMutability": "view",
      "type": "function"
    },
    {
      "inputs": [
        {
          "internalType": "uint256",
          "name": "",
          "type": "uint256"
        },
        {
          "internalType": "uint256",
          "name": "",
          "type": "uint256"
        }
      ],
      "name": "tokenIds",
      "outputs": [
        {
          "internalType": "uint256",
          "name": "",
          "type": "uint256"
        }
      ],
      "stateMutability": "view",
      "type": "function"
    },
    {
      "inputs": [
        {
          "internalType": "uint256",
          "name": "tokenId",
          "type": "uint256"
        }
      ],
      "name": "tokenURI",
      "outputs": [
        {
          "internalType": "string",
          "name": "",
          "type": "string"
        }
      ],
      "stateMutability": "view",
      "type": "function"
    },
    {
      "inputs": [
        {
          "internalType": "address",
          "name": "from",
          "type": "address"
        },
        {
          "internalType": "address",
          "name": "to",
          "type": "address"
        },
        {
          "internalType": "uint256",
          "name": "tokenId",
          "type": "uint256"
        }
      ],
      "name": "transferFrom",
      "outputs": [],
      "stateMutability": "nonpayable",
      "type": "function"
    },
    {
      "inputs": [
        {
          "internalType": "address",
          "name": "to",
          "type": "address"
        },
        {
          "internalType": "uint256",
          "name": "tokenId",
          "type": "uint256"
        }
      ],
      "name": "transferToken",
      "outputs": [],
      "stateMutability": "nonpayable",
      "type": "function"
    }
  ],
  "bytecode": "0x60806040523480156200001157600080fd5b506040518060400160405280600a81526020017f54727573746966696564000000000000000000000000000000000000000000008152506040518060400160405280600381526020017f54464e0000000000000000000000000000000000000000000000000000000000815250816000908051906020019062000096929190620000b8565b508060019080519060200190620000af929190620000b8565b505050620001cd565b828054620000c69062000168565b90600052602060002090601f016020900481019282620000ea576000855562000136565b82601f106200010557805160ff191683800117855562000136565b8280016001018555821562000136579182015b828111156200013557825182559160200191906001019062000118565b5b50905062000145919062000149565b5090565b5b80821115620001645760008160009055506001016200014a565b5090565b600060028204905060018216806200018157607f821691505b602082108114156200019857620001976200019e565b5b50919050565b7f4e487b7100000000000000000000000000000000000000000000000000000000600052602260045260246000fd5b61318880620001dd6000396000f3fe608060405234801561001057600080fd5b50600436106101165760003560e01c8063695850fb116100a2578063a22cb46511610071578063a22cb46514610303578063b88d4fde1461031f578063c87b56dd1461033b578063e985e9c51461036b578063eed8cc351461039b57610116565b8063695850fb1461026957806370a082311461029957806389f1aa39146102c957806395d89b41146102e557610116565b80631072cbea116100e95780631072cbea146101b557806323b872dd146101d157806342842e0e146101ed57806357991d30146102095780636352211e1461023957610116565b806301ffc9a71461011b57806306fdde031461014b578063081812fc14610169578063095ea7b314610199575b600080fd5b610135600480360381019061013091906122b9565b6103cb565b60405161014291906127da565b60405180910390f35b6101536104ad565b60405161016091906127f5565b60405180910390f35b610183600480360381019061017e919061234c565b61053f565b60405161019091906126f1565b60405180910390f35b6101b360048036038101906101ae919061223c565b610585565b005b6101cf60048036038101906101ca919061223c565b61069d565b005b6101eb60048036038101906101e69190612136565b61074b565b005b61020760048036038101906102029190612136565b6107a4565b005b610223600480360381019061021e919061234c565b6107c4565b60405161023091906127b8565b60405180910390f35b610253600480360381019061024e919061234c565b61082f565b60405161026091906126f1565b60405180910390f35b610283600480360381019061027e919061230b565b6108b6565b60405161029091906129b7565b60405180910390f35b6102b360048036038101906102ae91906120d1565b6108ec565b6040516102c091906129b7565b60405180910390f35b6102e360048036038101906102de9190612278565b6109a4565b005b6102ed610aa1565b6040516102fa91906127f5565b60405180910390f35b61031d60048036038101906103189190612200565b610b33565b005b61033960048036038101906103349190612185565b610b49565b005b6103556004803603810190610350919061234c565b610bab565b60405161036291906127f5565b60405180910390f35b610385600480360381019061038091906120fa565b610cbe565b60405161039291906127da565b60405180910390f35b6103b560048036038101906103b09190612375565b610d52565b6040516103c291906129b7565b60405180910390f35b60007f80ac58cd000000000000000000000000000000000000000000000000000000007bffffffffffffffffffffffffffffffffffffffffffffffffffffffff1916827bffffffffffffffffffffffffffffffffffffffffffffffffffffffff1916148061049657507f5b5e139f000000000000000000000000000000000000000000000000000000007bffffffffffffffffffffffffffffffffffffffffffffffffffffffff1916827bffffffffffffffffffffffffffffffffffffffffffffffffffffffff1916145b806104a657506104a582610d83565b5b9050919050565b6060600080546104bc90612c41565b80601f01602080910402602001604051908101604052809291908181526020018280546104e890612c41565b80156105355780601f1061050a57610100808354040283529160200191610535565b820191906000526020600020905b81548152906001019060200180831161051857829003601f168201915b5050505050905090565b600061054a82610ded565b6004600083815260200190815260200160002060009054906101000a900473ffffffffffffffffffffffffffffffffffffffff169050919050565b60006105908261082f565b90508073ffffffffffffffffffffffffffffffffffffffff168373ffffffffffffffffffffffffffffffffffffffff161415610601576040517f08c379a00000000000000000000000000000000000000000000000000000000081526004016105f890612957565b60405180910390fd5b8073ffffffffffffffffffffffffffffffffffffffff16610620610e38565b73ffffffffffffffffffffffffffffffffffffffff16148061064f575061064e81610649610e38565b610cbe565b5b61068e576040517f08c379a000000000000000000000000000000000000000000000000000000000815260040161068590612977565b60405180910390fd5b6106988383610e40565b505050565b3073ffffffffffffffffffffffffffffffffffffffff166323b872dd3084846040518463ffffffff1660e01b81526004016106da9392919061270c565b600060405180830381600087803b1580156106f457600080fd5b505af1158015610708573d6000803e3d6000fd5b505050507fec61728879a33aa50b55e1f4789dcfc1c680f30a24d7b8694a9f874e242a97b430838360405161073f9392919061270c565b60405180910390a15050565b6107558382610ef9565b610794576040517f08c379a000000000000000000000000000000000000000000000000000000000815260040161078b90612997565b60405180910390fd5b61079f838383610f8e565b505050565b6107bf83838360405180602001604052806000815250610b49565b505050565b60606009600083815260200190815260200160002080548060200260200160405190810160405280929190818152602001828054801561082357602002820191906000526020600020905b81548152602001906001019080831161080f575b50505050509050919050565b60008061083b83611288565b9050600073ffffffffffffffffffffffffffffffffffffffff168173ffffffffffffffffffffffffffffffffffffffff1614156108ad576040517f08c379a00000000000000000000000000000000000000000000000000000000081526004016108a490612937565b60405180910390fd5b80915050919050565b6000806108c360076112c5565b90506108cf60076112d3565b6108d930826112e9565b6108e38184611507565b80915050919050565b60008073ffffffffffffffffffffffffffffffffffffffff168273ffffffffffffffffffffffffffffffffffffffff16141561095d576040517f08c379a0000000000000000000000000000000000000000000000000000000008152600401610954906128d7565b60405180910390fd5b600360008373ffffffffffffffffffffffffffffffffffffffff1673ffffffffffffffffffffffffffffffffffffffff168152602001908152602001600020549050919050565b60006109b060086112c5565b90506109bc60086112d3565b60005b8251811015610a63576000610a13848381518110610a06577f4e487b7100000000000000000000000000000000000000000000000000000000600052603260045260246000fd5b60200260200101516108b6565b905060096000848152602001908152602001600020819080600181540180825580915050600190039060005260206000200160009091909190915055508080610a5b90612ca4565b9150506109bf565b507fb9144c96c86541f6fa89c9f2f02495cccf4b08cd6643e26d34ee00aa586558a83382604051610a9592919061278f565b60405180910390a15050565b606060018054610ab090612c41565b80601f0160208091040260200160405190810160405280929190818152602001828054610adc90612c41565b8015610b295780601f10610afe57610100808354040283529160200191610b29565b820191906000526020600020905b815481529060010190602001808311610b0c57829003601f168201915b5050505050905090565b610b45610b3e610e38565b838361157b565b5050565b610b5a610b54610e38565b83610ef9565b610b99576040517f08c379a0000000000000000000000000000000000000000000000000000000008152600401610b9090612817565b60405180910390fd5b610ba5848484846116e8565b50505050565b6060610bb682610ded565b6000600660008481526020019081526020016000208054610bd690612c41565b80601f0160208091040260200160405190810160405280929190818152602001828054610c0290612c41565b8015610c4f5780601f10610c2457610100808354040283529160200191610c4f565b820191906000526020600020905b815481529060010190602001808311610c3257829003601f168201915b505050505090506000610c60611744565b9050600081511415610c76578192505050610cb9565b600082511115610cab578082604051602001610c939291906126cd565b60405160208183030381529060405292505050610cb9565b610cb48461175b565b925050505b919050565b6000600560008473ffffffffffffffffffffffffffffffffffffffff1673ffffffffffffffffffffffffffffffffffffffff16815260200190815260200160002060008373ffffffffffffffffffffffffffffffffffffffff1673ffffffffffffffffffffffffffffffffffffffff16815260200190815260200160002060009054906101000a900460ff16905092915050565b60096020528160005260406000208181548110610d6e57600080fd5b90600052602060002001600091509150505481565b60007f01ffc9a7000000000000000000000000000000000000000000000000000000007bffffffffffffffffffffffffffffffffffffffffffffffffffffffff1916827bffffffffffffffffffffffffffffffffffffffffffffffffffffffff1916149050919050565b610df6816117c3565b610e35576040517f08c379a0000000000000000000000000000000000000000000000000000000008152600401610e2c90612937565b60405180910390fd5b50565b600033905090565b816004600083815260200190815260200160002060006101000a81548173ffffffffffffffffffffffffffffffffffffffff021916908373ffffffffffffffffffffffffffffffffffffffff160217905550808273ffffffffffffffffffffffffffffffffffffffff16610eb38361082f565b73ffffffffffffffffffffffffffffffffffffffff167f8c5be1e5ebec7d5bd14f71427d1e84f3dd0314c0f7b2291e5b200ac8c7c3b92560405160405180910390a45050565b600080610f058361082f565b90508073ffffffffffffffffffffffffffffffffffffffff168473ffffffffffffffffffffffffffffffffffffffff161480610f475750610f468185610cbe565b5b80610f8557508373ffffffffffffffffffffffffffffffffffffffff16610f6d8461053f565b73ffffffffffffffffffffffffffffffffffffffff16145b91505092915050565b8273ffffffffffffffffffffffffffffffffffffffff16610fae8261082f565b73ffffffffffffffffffffffffffffffffffffffff1614611004576040517f08c379a0000000000000000000000000000000000000000000000000000000008152600401610ffb90612857565b60405180910390fd5b600073ffffffffffffffffffffffffffffffffffffffff168273ffffffffffffffffffffffffffffffffffffffff161415611074576040517f08c379a000000000000000000000000000000000000000000000000000000000815260040161106b90612897565b60405180910390fd5b6110818383836001611804565b8273ffffffffffffffffffffffffffffffffffffffff166110a18261082f565b73ffffffffffffffffffffffffffffffffffffffff16146110f7576040517f08c379a00000000000000000000000000000000000000000000000000000000081526004016110ee90612857565b60405180910390fd5b6004600082815260200190815260200160002060006101000a81549073ffffffffffffffffffffffffffffffffffffffff02191690556001600360008573ffffffffffffffffffffffffffffffffffffffff1673ffffffffffffffffffffffffffffffffffffffff168152602001908152602001600020600082825403925050819055506001600360008473ffffffffffffffffffffffffffffffffffffffff1673ffffffffffffffffffffffffffffffffffffffff16815260200190815260200160002060008282540192505081905550816002600083815260200190815260200160002060006101000a81548173ffffffffffffffffffffffffffffffffffffffff021916908373ffffffffffffffffffffffffffffffffffffffff160217905550808273ffffffffffffffffffffffffffffffffffffffff168473ffffffffffffffffffffffffffffffffffffffff167fddf252ad1be2c89b69c2b068fc378daa952ba7f163c4a11628f55a4df523b3ef60405160405180910390a4611283838383600161192a565b505050565b60006002600083815260200190815260200160002060009054906101000a900473ffffffffffffffffffffffffffffffffffffffff169050919050565b600081600001549050919050565b6001816000016000828254019250508190555050565b600073ffffffffffffffffffffffffffffffffffffffff168273ffffffffffffffffffffffffffffffffffffffff161415611359576040517f08c379a000000000000000000000000000000000000000000000000000000000815260040161135090612917565b60405180910390fd5b611362816117c3565b156113a2576040517f08c379a000000000000000000000000000000000000000000000000000000000815260040161139990612877565b60405180910390fd5b6113b0600083836001611804565b6113b9816117c3565b156113f9576040517f08c379a00000000000000000000000000000000000000000000000000000000081526004016113f090612877565b60405180910390fd5b6001600360008473ffffffffffffffffffffffffffffffffffffffff1673ffffffffffffffffffffffffffffffffffffffff16815260200190815260200160002060008282540192505081905550816002600083815260200190815260200160002060006101000a81548173ffffffffffffffffffffffffffffffffffffffff021916908373ffffffffffffffffffffffffffffffffffffffff160217905550808273ffffffffffffffffffffffffffffffffffffffff16600073ffffffffffffffffffffffffffffffffffffffff167fddf252ad1be2c89b69c2b068fc378daa952ba7f163c4a11628f55a4df523b3ef60405160405180910390a461150360008383600161192a565b5050565b611510826117c3565b61154f576040517f08c379a0000000000000000000000000000000000000000000000000000000008152600401611546906128f7565b60405180910390fd5b80600660008481526020019081526020016000209080519060200190611576929190611e45565b505050565b8173ffffffffffffffffffffffffffffffffffffffff168373ffffffffffffffffffffffffffffffffffffffff1614156115ea576040517f08c379a00000000000000000000000000000000000000000000000000000000081526004016115e1906128b7565b60405180910390fd5b80600560008573ffffffffffffffffffffffffffffffffffffffff1673ffffffffffffffffffffffffffffffffffffffff16815260200190815260200160002060008473ffffffffffffffffffffffffffffffffffffffff1673ffffffffffffffffffffffffffffffffffffffff16815260200190815260200160002060006101000a81548160ff0219169083151502179055508173ffffffffffffffffffffffffffffffffffffffff168373ffffffffffffffffffffffffffffffffffffffff167f17307eab39ab6107e8899845ad3d59bd9653f200f220920489ca2b5937696c31836040516116db91906127da565b60405180910390a3505050565b6116f3848484610f8e565b6116ff84848484611930565b61173e576040517f08c379a000000000000000000000000000000000000000000000000000000000815260040161173590612837565b60405180910390fd5b50505050565b606060405180602001604052806000815250905090565b606061176682610ded565b6000611770611744565b9050600081511161179057604051806020016040528060008152506117bb565b8061179a84611ac7565b6040516020016117ab9291906126cd565b6040516020818303038152906040525b915050919050565b60008073ffffffffffffffffffffffffffffffffffffffff166117e583611288565b73ffffffffffffffffffffffffffffffffffffffff1614159050919050565b600181111561192457600073ffffffffffffffffffffffffffffffffffffffff168473ffffffffffffffffffffffffffffffffffffffff16146118985780600360008673ffffffffffffffffffffffffffffffffffffffff1673ffffffffffffffffffffffffffffffffffffffff16815260200190815260200160002060008282546118909190612b57565b925050819055505b600073ffffffffffffffffffffffffffffffffffffffff168373ffffffffffffffffffffffffffffffffffffffff16146119235780600360008573ffffffffffffffffffffffffffffffffffffffff1673ffffffffffffffffffffffffffffffffffffffff168152602001908152602001600020600082825461191b9190612b01565b925050819055505b5b50505050565b50505050565b60006119518473ffffffffffffffffffffffffffffffffffffffff16611beb565b15611aba578373ffffffffffffffffffffffffffffffffffffffff1663150b7a0261197a610e38565b8786866040518563ffffffff1660e01b815260040161199c9493929190612743565b602060405180830381600087803b1580156119b657600080fd5b505af19250505080156119e757506040513d601f19601f820116820180604052508101906119e491906122e2565b60015b611a6a573d8060008114611a17576040519150601f19603f3d011682016040523d82523d6000602084013e611a1c565b606091505b50600081511415611a62576040517f08c379a0000000000000000000000000000000000000000000000000000000008152600401611a5990612837565b60405180910390fd5b805181602001fd5b63150b7a0260e01b7bffffffffffffffffffffffffffffffffffffffffffffffffffffffff1916817bffffffffffffffffffffffffffffffffffffffffffffffffffffffff191614915050611abf565b600190505b949350505050565b606060006001611ad684611c0e565b01905060008167ffffffffffffffff811115611b1b577f4e487b7100000000000000000000000000000000000000000000000000000000600052604160045260246000fd5b6040519080825280601f01601f191660200182016040528015611b4d5781602001600182028036833780820191505090505b509050600082602001820190505b600115611be0578080600190039150507f3031323334353637383961626364656600000000000000000000000000000000600a86061a8153600a8581611bca577f4e487b7100000000000000000000000000000000000000000000000000000000600052601260045260246000fd5b0494506000851415611bdb57611be0565b611b5b565b819350505050919050565b6000808273ffffffffffffffffffffffffffffffffffffffff163b119050919050565b600080600090507a184f03e93ff9f4daa797ed6e38ed64bf6a1f0100000000000000008310611c92577a184f03e93ff9f4daa797ed6e38ed64bf6a1f0100000000000000008381611c88577f4e487b7100000000000000000000000000000000000000000000000000000000600052601260045260246000fd5b0492506040810190505b6d04ee2d6d415b85acef81000000008310611cf5576d04ee2d6d415b85acef81000000008381611ceb577f4e487b7100000000000000000000000000000000000000000000000000000000600052601260045260246000fd5b0492506020810190505b662386f26fc100008310611d4a57662386f26fc100008381611d40577f4e487b7100000000000000000000000000000000000000000000000000000000600052601260045260246000fd5b0492506010810190505b6305f5e1008310611d99576305f5e1008381611d8f577f4e487b7100000000000000000000000000000000000000000000000000000000600052601260045260246000fd5b0492506008810190505b6127108310611de4576127108381611dda577f4e487b7100000000000000000000000000000000000000000000000000000000600052601260045260246000fd5b0492506004810190505b60648310611e2d5760648381611e23577f4e487b7100000000000000000000000000000000000000000000000000000000600052601260045260246000fd5b0492506002810190505b600a8310611e3c576001810190505b80915050919050565b828054611e5190612c41565b90600052602060002090601f016020900481019282611e735760008555611eba565b82601f10611e8c57805160ff1916838001178555611eba565b82800160010185558215611eba579182015b82811115611eb9578251825591602001919060010190611e9e565b5b509050611ec79190611ecb565b5090565b5b80821115611ee4576000816000905550600101611ecc565b5090565b6000611efb611ef6846129f7565b6129d2565b90508083825260208201905082856020860282011115611f1a57600080fd5b60005b85811015611f6457813567ffffffffffffffff811115611f3c57600080fd5b808601611f498982612092565b85526020850194506020840193505050600181019050611f1d565b5050509392505050565b6000611f81611f7c84612a23565b6129d2565b905082815260208101848484011115611f9957600080fd5b611fa4848285612bff565b509392505050565b6000611fbf611fba84612a54565b6129d2565b905082815260208101848484011115611fd757600080fd5b611fe2848285612bff565b509392505050565b600081359050611ff9816130f6565b92915050565b600082601f83011261201057600080fd5b8135612020848260208601611ee8565b91505092915050565b6000813590506120388161310d565b92915050565b60008135905061204d81613124565b92915050565b60008151905061206281613124565b92915050565b600082601f83011261207957600080fd5b8135612089848260208601611f6e565b91505092915050565b600082601f8301126120a357600080fd5b81356120b3848260208601611fac565b91505092915050565b6000813590506120cb8161313b565b92915050565b6000602082840312156120e357600080fd5b60006120f184828501611fea565b91505092915050565b6000806040838503121561210d57600080fd5b600061211b85828601611fea565b925050602061212c85828601611fea565b9150509250929050565b60008060006060848603121561214b57600080fd5b600061215986828701611fea565b935050602061216a86828701611fea565b925050604061217b868287016120bc565b9150509250925092565b6000806000806080858703121561219b57600080fd5b60006121a987828801611fea565b94505060206121ba87828801611fea565b93505060406121cb878288016120bc565b925050606085013567ffffffffffffffff8111156121e857600080fd5b6121f487828801612068565b91505092959194509250565b6000806040838503121561221357600080fd5b600061222185828601611fea565b925050602061223285828601612029565b9150509250929050565b6000806040838503121561224f57600080fd5b600061225d85828601611fea565b925050602061226e858286016120bc565b9150509250929050565b60006020828403121561228a57600080fd5b600082013567ffffffffffffffff8111156122a457600080fd5b6122b084828501611fff565b91505092915050565b6000602082840312156122cb57600080fd5b60006122d98482850161203e565b91505092915050565b6000602082840312156122f457600080fd5b600061230284828501612053565b91505092915050565b60006020828403121561231d57600080fd5b600082013567ffffffffffffffff81111561233757600080fd5b61234384828501612092565b91505092915050565b60006020828403121561235e57600080fd5b600061236c848285016120bc565b91505092915050565b6000806040838503121561238857600080fd5b6000612396858286016120bc565b92505060206123a7858286016120bc565b9150509250929050565b60006123bd83836126af565b60208301905092915050565b6123d281612b8b565b82525050565b60006123e382612a95565b6123ed8185612ac3565b93506123f883612a85565b8060005b8381101561242957815161241088826123b1565b975061241b83612ab6565b9250506001810190506123fc565b5085935050505092915050565b61243f81612b9d565b82525050565b600061245082612aa0565b61245a8185612ad4565b935061246a818560208601612c0e565b61247381612d7a565b840191505092915050565b600061248982612aab565b6124938185612ae5565b93506124a3818560208601612c0e565b6124ac81612d7a565b840191505092915050565b60006124c282612aab565b6124cc8185612af6565b93506124dc818560208601612c0e565b80840191505092915050565b60006124f5602d83612ae5565b915061250082612d8b565b604082019050919050565b6000612518603283612ae5565b915061252382612dda565b604082019050919050565b600061253b602583612ae5565b915061254682612e29565b604082019050919050565b600061255e601c83612ae5565b915061256982612e78565b602082019050919050565b6000612581602483612ae5565b915061258c82612ea1565b604082019050919050565b60006125a4601983612ae5565b91506125af82612ef0565b602082019050919050565b60006125c7602983612ae5565b91506125d282612f19565b604082019050919050565b60006125ea602e83612ae5565b91506125f582612f68565b604082019050919050565b600061260d602083612ae5565b915061261882612fb7565b602082019050919050565b6000612630601883612ae5565b915061263b82612fe0565b602082019050919050565b6000612653602183612ae5565b915061265e82613009565b604082019050919050565b6000612676603d83612ae5565b915061268182613058565b604082019050919050565b6000612699603183612ae5565b91506126a4826130a7565b604082019050919050565b6126b881612bf5565b82525050565b6126c781612bf5565b82525050565b60006126d982856124b7565b91506126e582846124b7565b91508190509392505050565b600060208201905061270660008301846123c9565b92915050565b600060608201905061272160008301866123c9565b61272e60208301856123c9565b61273b60408301846126be565b949350505050565b600060808201905061275860008301876123c9565b61276560208301866123c9565b61277260408301856126be565b81810360608301526127848184612445565b905095945050505050565b60006040820190506127a460008301856123c9565b6127b160208301846126be565b9392505050565b600060208201905081810360008301526127d281846123d8565b905092915050565b60006020820190506127ef6000830184612436565b92915050565b6000602082019050818103600083015261280f818461247e565b905092915050565b60006020820190508181036000830152612830816124e8565b9050919050565b600060208201905081810360008301526128508161250b565b9050919050565b600060208201905081810360008301526128708161252e565b9050919050565b6000602082019050818103600083015261289081612551565b9050919050565b600060208201905081810360008301526128b081612574565b9050919050565b600060208201905081810360008301526128d081612597565b9050919050565b600060208201905081810360008301526128f0816125ba565b9050919050565b60006020820190508181036000830152612910816125dd565b9050919050565b6000602082019050818103600083015261293081612600565b9050919050565b6000602082019050818103600083015261295081612623565b9050919050565b6000602082019050818103600083015261297081612646565b9050919050565b6000602082019050818103600083015261299081612669565b9050919050565b600060208201905081810360008301526129b08161268c565b9050919050565b60006020820190506129cc60008301846126be565b92915050565b60006129dc6129ed565b90506129e88282612c73565b919050565b6000604051905090565b600067ffffffffffffffff821115612a1257612a11612d4b565b5b602082029050602081019050919050565b600067ffffffffffffffff821115612a3e57612a3d612d4b565b5b612a4782612d7a565b9050602081019050919050565b600067ffffffffffffffff821115612a6f57612a6e612d4b565b5b612a7882612d7a565b9050602081019050919050565b6000819050602082019050919050565b600081519050919050565b600081519050919050565b600081519050919050565b6000602082019050919050565b600082825260208201905092915050565b600082825260208201905092915050565b600082825260208201905092915050565b600081905092915050565b6000612b0c82612bf5565b9150612b1783612bf5565b9250827fffffffffffffffffffffffffffffffffffffffffffffffffffffffffffffffff03821115612b4c57612b4b612ced565b5b828201905092915050565b6000612b6282612bf5565b9150612b6d83612bf5565b925082821015612b8057612b7f612ced565b5b828203905092915050565b6000612b9682612bd5565b9050919050565b60008115159050919050565b60007fffffffff0000000000000000000000000000000000000000000000000000000082169050919050565b600073ffffffffffffffffffffffffffffffffffffffff82169050919050565b6000819050919050565b82818337600083830152505050565b60005b83811015612c2c578082015181840152602081019050612c11565b83811115612c3b576000848401525b50505050565b60006002820490506001821680612c5957607f821691505b60208210811415612c6d57612c6c612d1c565b5b50919050565b612c7c82612d7a565b810181811067ffffffffffffffff82111715612c9b57612c9a612d4b565b5b80604052505050565b6000612caf82612bf5565b91507fffffffffffffffffffffffffffffffffffffffffffffffffffffffffffffffff821415612ce257612ce1612ced565b5b600182019050919050565b7f4e487b7100000000000000000000000000000000000000000000000000000000600052601160045260246000fd5b7f4e487b7100000000000000000000000000000000000000000000000000000000600052602260045260246000fd5b7f4e487b7100000000000000000000000000000000000000000000000000000000600052604160045260246000fd5b6000601f19601f8301169050919050565b7f4552433732313a2063616c6c6572206973206e6f7420746f6b656e206f776e6560008201527f72206f7220617070726f76656400000000000000000000000000000000000000602082015250565b7f4552433732313a207472616e7366657220746f206e6f6e20455243373231526560008201527f63656976657220696d706c656d656e7465720000000000000000000000000000602082015250565b7f4552433732313a207472616e736665722066726f6d20696e636f72726563742060008201527f6f776e6572000000000000000000000000000000000000000000000000000000602082015250565b7f4552433732313a20746f6b656e20616c7265616479206d696e74656400000000600082015250565b7f4552433732313a207472616e7366657220746f20746865207a65726f2061646460008201527f7265737300000000000000000000000000000000000000000000000000000000602082015250565b7f4552433732313a20617070726f766520746f2063616c6c657200000000000000600082015250565b7f4552433732313a2061646472657373207a65726f206973206e6f74206120766160008201527f6c6964206f776e65720000000000000000000000000000000000000000000000602082015250565b7f45524337323155524953746f726167653a2055524920736574206f66206e6f6e60008201527f6578697374656e7420746f6b656e000000000000000000000000000000000000602082015250565b7f4552433732313a206d696e7420746f20746865207a65726f2061646472657373600082015250565b7f4552433732313a20696e76616c696420746f6b656e2049440000000000000000600082015250565b7f4552433732313a20617070726f76616c20746f2063757272656e74206f776e6560008201527f7200000000000000000000000000000000000000000000000000000000000000602082015250565b7f4552433732313a20617070726f76652063616c6c6572206973206e6f7420746f60008201527f6b656e206f776e6572206f7220617070726f76656420666f7220616c6c000000602082015250565b7f4552433732313a207472616e736665722063616c6c6572206973206e6f74206f60008201527f776e6572206e6f7220617070726f766564000000000000000000000000000000602082015250565b6130ff81612b8b565b811461310a57600080fd5b50565b61311681612b9d565b811461312157600080fd5b50565b61312d81612ba9565b811461313857600080fd5b50565b61314481612bf5565b811461314f57600080fd5b5056fea26469706673582212209e0237d96d2613d02dd27fc2a471a25b9e033528a610e8e27df251555bcee12b64736f6c63430008040033",
  "linkReferences": {},
  "deployedLinkReferences": {}
}